{
  "contractName": "CommitReveal",
  "abi": [
    {
      "inputs": [
        {
          "internalType": "uint256",
          "name": "_phaseLengthInSeconds",
          "type": "uint256"
        },
        {
          "internalType": "string",
          "name": "_choice1",
          "type": "string"
        },
        {
          "internalType": "string",
          "name": "_choice2",
          "type": "string"
        }
      ],
      "stateMutability": "nonpayable",
      "type": "constructor"
    },
    {
      "anonymous": false,
      "inputs": [
        {
          "indexed": false,
          "internalType": "bytes32",
          "name": "commit",
          "type": "bytes32"
        }
      ],
      "name": "NewVoteCommit",
      "type": "event"
    },
    {
      "anonymous": false,
      "inputs": [
        {
          "indexed": false,
          "internalType": "bytes32",
          "name": "commit",
          "type": "bytes32"
        },
        {
          "indexed": false,
          "internalType": "string",
          "name": "choice",
          "type": "string"
        }
      ],
      "name": "NewVoteReveal",
      "type": "event"
    },
    {
      "inputs": [],
      "name": "choice1",
      "outputs": [
        {
          "internalType": "string",
          "name": "",
          "type": "string"
        }
      ],
      "stateMutability": "view",
      "type": "function",
      "constant": true
    },
    {
      "inputs": [],
      "name": "choice2",
      "outputs": [
        {
          "internalType": "string",
          "name": "",
          "type": "string"
        }
      ],
      "stateMutability": "view",
      "type": "function",
      "constant": true
    },
    {
      "inputs": [],
      "name": "commitPhaseEndTime",
      "outputs": [
        {
          "internalType": "uint256",
          "name": "",
          "type": "uint256"
        }
      ],
      "stateMutability": "view",
      "type": "function",
      "constant": true
    },
    {
      "inputs": [],
      "name": "numberOfVotesCast",
      "outputs": [
        {
          "internalType": "uint256",
          "name": "",
          "type": "uint256"
        }
      ],
      "stateMutability": "view",
      "type": "function",
      "constant": true
    },
    {
      "inputs": [
        {
          "internalType": "uint256",
          "name": "",
          "type": "uint256"
        }
      ],
      "name": "voteCommits",
      "outputs": [
        {
          "internalType": "bytes32",
          "name": "",
          "type": "bytes32"
        }
      ],
      "stateMutability": "view",
      "type": "function",
      "constant": true
    },
    {
      "inputs": [
        {
          "internalType": "bytes32",
          "name": "",
          "type": "bytes32"
        }
      ],
      "name": "voteStatuses",
      "outputs": [
        {
          "internalType": "string",
          "name": "",
          "type": "string"
        }
      ],
      "stateMutability": "view",
      "type": "function",
      "constant": true
    },
    {
      "inputs": [],
      "name": "votesForChoice1",
      "outputs": [
        {
          "internalType": "uint256",
          "name": "",
          "type": "uint256"
        }
      ],
      "stateMutability": "view",
      "type": "function",
      "constant": true
    },
    {
      "inputs": [],
      "name": "votesForChoice2",
      "outputs": [
        {
          "internalType": "uint256",
          "name": "",
          "type": "uint256"
        }
      ],
      "stateMutability": "view",
      "type": "function",
      "constant": true
    },
    {
      "inputs": [
        {
          "internalType": "bytes32",
          "name": "voteCommit",
          "type": "bytes32"
        }
      ],
      "name": "commitVote",
      "outputs": [],
      "stateMutability": "nonpayable",
      "type": "function"
    },
    {
      "inputs": [
        {
          "internalType": "string",
          "name": "vote",
          "type": "string"
        },
        {
          "internalType": "bytes32",
          "name": "voteCommit",
          "type": "bytes32"
        }
      ],
      "name": "revealVote",
      "outputs": [],
      "stateMutability": "nonpayable",
      "type": "function"
    },
    {
      "inputs": [],
      "name": "getWinner",
      "outputs": [
        {
          "internalType": "string",
          "name": "winner",
          "type": "string"
        }
      ],
      "stateMutability": "view",
      "type": "function",
      "constant": true
    },
    {
      "inputs": [],
      "name": "getVoteCommitsArray",
      "outputs": [
        {
          "internalType": "bytes32[]",
          "name": "",
          "type": "bytes32[]"
        }
      ],
      "stateMutability": "view",
      "type": "function",
      "constant": true
    }
  ],
  "bytecode": "0x608060405260006005553480156200001657600080fd5b506040516200176038038062001760833981810160405260608110156200003c57600080fd5b8101908080519060200190929190805160405193929190846401000000008211156200006757600080fd5b838201915060208201858111156200007e57600080fd5b82518660018202830111640100000000821117156200009c57600080fd5b8083526020830192505050908051906020019080838360005b83811015620000d2578082015181840152602081019050620000b5565b50505050905090810190601f168015620001005780820380516001836020036101000a031916815260200191505b50604052602001805160405193929190846401000000008211156200012457600080fd5b838201915060208201858111156200013b57600080fd5b82518660018202830111640100000000821117156200015957600080fd5b8083526020830192505050908051906020019080838360005b838110156200018f57808201518184015260208101905062000172565b50505050905090810190601f168015620001bd5780820380516001836020036101000a031916815260200191505b50604052505050600083101562000220576040517f08c379a000000000000000000000000000000000000000000000000000000000815260040180806020018281038252602c81526020018062001734602c913960400191505060405180910390fd5b82420160048190555081600090805190602001906200024192919062000264565b5080600190805190602001906200025a92919062000264565b505050506200031a565b828054600181600116156101000203166002900490600052602060002090601f0160209004810192826200029c5760008555620002e8565b82601f10620002b757805160ff1916838001178555620002e8565b82800160010185558215620002e8579182015b82811115620002e7578251825591602001919060010190620002ca565b5b509050620002f79190620002fb565b5090565b5b8082111562000316576000816000905550600101620002fc565b5090565b61140a806200032a6000396000f3fe608060405234801561001057600080fd5b50600436106100b45760003560e01c806387cfa5bf1161007157806387cfa5bf146102ca5780638e7ea5b21461034d578063a6193504146103d0578063baa13bb5146103ee578063bf9d06981461040c578063fd5bd01d1461044e576100b4565b8063031b6dbf146100b95780630bbfc206146100d757806322ce9bac1461019c5780633a2a2cc5146101ba5780633e8589231461021957806349e811c514610247575b600080fd5b6100c16104f5565b6040518082815260200191505060405180910390f35b61019a600480360360408110156100ed57600080fd5b810190808035906020019064010000000081111561010a57600080fd5b82018360208201111561011c57600080fd5b8035906020019184600183028401116401000000008311171561013e57600080fd5b91908080601f016020809104026020016040519081016040528093929190818152602001838380828437600081840152601f19601f820116905080830192505050505050509192919290803590602001909291905050506104fb565b005b6101a4610abf565b6040518082815260200191505060405180910390f35b6101c2610ac5565b6040518080602001828103825283818151815260200191508051906020019060200280838360005b838110156102055780820151818401526020810190506101ea565b505050509050019250505060405180910390f35b6102456004803603602081101561022f57600080fd5b8101908080359060200190929190505050610b1d565b005b61024f610d54565b6040518080602001828103825283818151815260200191508051906020019080838360005b8381101561028f578082015181840152602081019050610274565b50505050905090810190601f1680156102bc5780820380516001836020036101000a031916815260200191505b509250505060405180910390f35b6102d2610df2565b6040518080602001828103825283818151815260200191508051906020019080838360005b838110156103125780820151818401526020810190506102f7565b50505050905090810190601f16801561033f5780820380516001836020036101000a031916815260200191505b509250505060405180910390f35b610355610e90565b6040518080602001828103825283818151815260200191508051906020019080838360005b8381101561039557808201518184015260208101905061037a565b50505050905090810190601f1680156103c25780820380516001836020036101000a031916815260200191505b509250505060405180910390f35b6103d86110f8565b6040518082815260200191505060405180910390f35b6103f66110fe565b6040518082815260200191505060405180910390f35b6104386004803603602081101561042257600080fd5b8101908080359060200190929190505050611104565b6040518082815260200191505060405180910390f35b61047a6004803603602081101561046457600080fd5b8101908080359060200190929190505050611128565b6040518080602001828103825283818151815260200191508051906020019080838360005b838110156104ba57808201518184015260208101905061049f565b50505050905090810190601f1680156104e75780820380516001836020036101000a031916815260200191505b509250505060405180910390f35b60035481565b6060600760008381526020019081526020016000208054600181600116156101000203166002900480601f0160208091040260200160405190810160405280929190818152602001828054600181600116156101000203166002900480156105a45780601f10610579576101008083540402835291602001916105a4565b820191906000526020600020905b81548152906001019060200180831161058757829003601f168201915b50505050509050600081511415610606576040517f08c379a00000000000000000000000000000000000000000000000000000000081526004018080602001828103825260298152602001806112846029913960400191505060405180910390fd5b7f43000000000000000000000000000000000000000000000000000000000000008160008151811061063457fe5b602001015160f81c60f81b7effffffffffffffffffffffffffffffffffffffffffffffffffffffffffffff1916146106d4576040517f08c379a000000000000000000000000000000000000000000000000000000000815260040180806020018281038252601f8152602001807f5468697320766f74652077617320616c72656164792072657665616c65642e0081525060200191505060405180910390fd5b826040516020018082805190602001908083835b6020831061070b57805182526020820191506020810190506020830392506106e8565b6001836020036101000a03801982511681845116808217855250505050505090500191505060405160208183030381529060405280519060200120821461079d576040517f08c379a00000000000000000000000000000000000000000000000000000000081526004018080602001828103825260258152602001806113136025913960400191505060405180910390fd5b60608390507f3100000000000000000000000000000000000000000000000000000000000000816000815181106107d057fe5b602001015160f81c60f81b7effffffffffffffffffffffffffffffffffffffffffffffffffffffffffffff191614156108d6576001600254016002819055507f69ab1b0836124ec1de36500cc76e0bcd684f01f02d992b7b26f6ad222a2ddf2183600060405180838152602001806020018281038252838181546001816001161561010002031660029004815260200191508054600181600116156101000203166002900480156108c25780601f10610897576101008083540402835291602001916108c2565b820191906000526020600020905b8154815290600101906020018083116108a557829003601f168201915b5050935050505060405180910390a1610a5c565b7f32000000000000000000000000000000000000000000000000000000000000008160008151811061090457fe5b602001015160f81c60f81b7effffffffffffffffffffffffffffffffffffffffffffffffffffffffffffff19161415610a0a576001600354016003819055507f69ab1b0836124ec1de36500cc76e0bcd684f01f02d992b7b26f6ad222a2ddf2183600160405180838152602001806020018281038252838181546001816001161561010002031660029004815260200191508054600181600116156101000203166002900480156109f65780601f106109cb576101008083540402835291602001916109f6565b820191906000526020600020905b8154815290600101906020018083116109d957829003601f168201915b5050935050505060405180910390a1610a5b565b6040517f08c379a000000000000000000000000000000000000000000000000000000000815260040180806020018281038252604c815260200180611368604c913960600191505060405180910390fd5b5b6040518060400160405280600881526020017f52657665616c6564000000000000000000000000000000000000000000000000815250600760008581526020019081526020016000209080519060200190610ab89291906111d8565b5050505050565b60055481565b60606006805480602002602001604051908101604052809291908181526020018280548015610b1357602002820191906000526020600020905b815481526020019060010190808311610aff575b5050505050905090565b6004544210610b77576040517f08c379a00000000000000000000000000000000000000000000000000000000081526004018080602001828103825260308152602001806113386030913960400191505060405180910390fd5b6060600760008381526020019081526020016000208054600181600116156101000203166002900480601f016020809104026020016040519081016040528092919081815260200182805460018160011615610100020316600290048015610c205780601f10610bf557610100808354040283529160200191610c20565b820191906000526020600020905b815481529060010190602001808311610c0357829003601f168201915b505050505090506000815114610c81576040517f08c379a00000000000000000000000000000000000000000000000000000000081526004018080602001828103825260218152602001806113b46021913960400191505060405180910390fd5b60068290806001815401808255809150506001900390600052602060002001600090919091909150556040518060400160405280600981526020017f436f6d6d69747465640000000000000000000000000000000000000000000000815250600760008481526020019081526020016000209080519060200190610d069291906111d8565b506005600081548092919060010191905055507f336dd6fa514fe196ac01f0e19a495fc73b7885d9357f993cf52e4919f70db099826040518082815260200191505060405180910390a15050565b60008054600181600116156101000203166002900480601f016020809104026020016040519081016040528092919081815260200182805460018160011615610100020316600290048015610dea5780601f10610dbf57610100808354040283529160200191610dea565b820191906000526020600020905b815481529060010190602001808311610dcd57829003601f168201915b505050505081565b60018054600181600116156101000203166002900480601f016020809104026020016040519081016040528092919081815260200182805460018160011615610100020316600290048015610e885780601f10610e5d57610100808354040283529160200191610e88565b820191906000526020600020905b815481529060010190602001808311610e6b57829003601f168201915b505050505081565b60606004544211610eec576040517f08c379a00000000000000000000000000000000000000000000000000000000081526004018080602001828103825260368152602001806112dd6036913960400191505060405180910390fd5b6006805490506003546002540114610f4f576040517f08c379a00000000000000000000000000000000000000000000000000000000081526004018080602001828103825260308152602001806112ad6030913960400191505060405180910390fd5b6003546002541115610ffd5760008054600181600116156101000203166002900480601f016020809104026020016040519081016040528092919081815260200182805460018160011615610100020316600290048015610ff15780601f10610fc657610100808354040283529160200191610ff1565b820191906000526020600020905b815481529060010190602001808311610fd457829003601f168201915b505050505090506110f5565b60025460035411156110ab5760018054600181600116156101000203166002900480601f01602080910402602001604051908101604052809291908181526020018280546001816001161561010002031660029004801561109f5780601f106110745761010080835404028352916020019161109f565b820191906000526020600020905b81548152906001019060200180831161108257829003601f168201915b505050505090506110f5565b60035460025414156110f4576040518060400160405280600d81526020017f497420776173206120746965210000000000000000000000000000000000000081525090506110f5565b5b90565b60045481565b60025481565b6006818154811061111457600080fd5b906000526020600020016000915090505481565b60076020528060005260406000206000915090508054600181600116156101000203166002900480601f0160208091040260200160405190810160405280929190818152602001828054600181600116156101000203166002900480156111d05780601f106111a5576101008083540402835291602001916111d0565b820191906000526020600020905b8154815290600101906020018083116111b357829003601f168201915b505050505081565b828054600181600116156101000203166002900490600052602060002090601f01602090048101928261120e5760008555611255565b82601f1061122757805160ff1916838001178555611255565b82800160010185558215611255579182015b82811115611254578251825591602001919060010190611239565b5b5090506112629190611266565b5090565b5b8082111561127f576000816000905550600101611267565b509056fe4120766f74652077697468207468697320766f7465436f6d6d697420776173206e6f7420636173742e43616e206f6e6c79206765742077696e6e6572207768656e20616c6c20766f746573206172652072657665616c65642e4f6e6c7920616c6c6f77656420746f206765742077696e6e657220616674657220636f6d6d6974207068617365206973206f7665722e566f7465206861736820646f6573206e6f74206d6174636820766f746520636f6d6d69742e4f6e6c7920616c6c6f77656420746f20636f6d6d697420647572696e6720636f6d6d697474696e6720706572696f642e566f746520636f756c64206e6f7420626520726561642120566f746573206d7573742073746172742077697468207468652041534349492063686172616374657220603160206f72206032605468697320636f6d6d69742068617320616c7265616479206265656e2075736564a2646970667358221220beacb8a3c95921850668a73c81ad5a73063bae88bd146c797966446b580c2fcf64736f6c63430007050033436f6d6d69742070686173652063616e6e6f74206265206c657373207468616e203230207365636f6e64732e",
  "immutableReferences": {},
  "source": "// SPDX-License-Identifier: GPL-3.0\n\npragma solidity 0.7.5;\n\n\ncontract CommitReveal {\n    // The two choices for your vote. Note that these are just symbolic and for display purposes only. \n    // In practice, the user \n    string public choice1;\n    string public choice2;\n    \n    // Information about the current status of the vote\n    uint256 public votesForChoice1;\n    uint256 public votesForChoice2;\n    uint256 public commitPhaseEndTime;\n    uint256 public numberOfVotesCast = 0;\n\n    // The actual votes and vote commits\n    bytes32[] public voteCommits;\n    mapping(bytes32 => string) public voteStatuses; // Either `Committed` or `Revealed`\n    \n    // Events used to log what's going on in the contract\n    event NewVoteCommit(bytes32 commit);\n    event NewVoteReveal(bytes32 commit, string choice);\n    \n    // Constructor used to set parameters for the this specific vote\n    constructor(\n        uint256 _phaseLengthInSeconds, \n        string memory _choice1, \n        string memory _choice2\n    ) {\n        require(\n            _phaseLengthInSeconds >= 0,\n            \"Commit phase cannot be less than 20 seconds.\"\n        );\n        commitPhaseEndTime = block.timestamp + _phaseLengthInSeconds;\n        choice1 = _choice1;\n        choice2 = _choice2;\n    }\n\n    modifier onlyDuringCommitPhase() {\n        require(\n            block.timestamp < commitPhaseEndTime,\n            \"Only allowed to commit during committing period.\"\n        );\n        _;\n    }\n\n    modifier onlyAfterCommitPhase() {\n        require(\n            block.timestamp > commitPhaseEndTime,\n            \"Only allowed to get winner after commit phase is over.\"\n        );\n        _;\n    }\n\n    modifier onlyWhenAllVotesAreCounted() {\n        require(\n            votesForChoice1 + votesForChoice2 == voteCommits.length,\n            \"Can only get winner when all votes are revealed.\"\n        );\n        _;\n    }\n    \n    function commitVote(bytes32 voteCommit) public onlyDuringCommitPhase {\n        // Check if this commit has been used before\n        bytes memory bytesVoteCommit = bytes(voteStatuses[voteCommit]);\n        require(\n            bytesVoteCommit.length == 0,\n            \"This commit has already been used\"\n        );\n        \n        // We are still in the committing period & the commit is new so add it\n        voteCommits.push(voteCommit);\n        voteStatuses[voteCommit] = \"Committed\";\n        numberOfVotesCast++;\n\n        emit NewVoteCommit(\n            voteCommit\n        );\n    }\n    \n    function revealVote(string memory vote, bytes32 voteCommit) public {\n        // FIRST: Verify the vote & commit is valid\n        bytes memory bytesVoteStatus = bytes(voteStatuses[voteCommit]);\n        if (bytesVoteStatus.length == 0) {\n            revert(\"A vote with this voteCommit was not cast.\");\n        } else if (bytesVoteStatus[0] != \"C\") {\n            revert(\"This vote was already revealed.\");\n        }\n\n        if (voteCommit != keccak256(abi.encodePacked(vote))) {\n            revert(\"Vote hash does not match vote commit.\");\n        }\n        \n        // NEXT: Count the vote!\n        bytes memory bytesVote = bytes(vote);\n        if (bytesVote[0] == \"1\") {\n            votesForChoice1 = votesForChoice1 + 1;\n            emit NewVoteReveal(voteCommit, choice1);\n        } else if (bytesVote[0] == \"2\") {\n            votesForChoice2 = votesForChoice2 + 1;\n            emit NewVoteReveal(voteCommit, choice2);\n        } else {\n            revert(\"Vote could not be read! Votes must start with the ASCII character `1` or `2`\");\n        }\n        voteStatuses[voteCommit] = \"Revealed\";\n    }\n    \n    function getWinner() \n        public \n        view \n        onlyAfterCommitPhase\n        onlyWhenAllVotesAreCounted \n        returns (string memory winner) \n    {    \n        if (votesForChoice1 > votesForChoice2) {\n            return choice1;\n        } else if (votesForChoice2 > votesForChoice1) {\n            return choice2;\n        } else if (votesForChoice1 == votesForChoice2) {\n            return \"It was a tie!\";\n        }\n    }\n\n    function getVoteCommitsArray() public view returns (bytes32[] memory) {\n        return voteCommits;\n    }\n}",
  "sourcePath": "/home/jimmy/Downloads/newone/contracts/CommitReveal.sol",
  "compiler": {
    "name": "solc",
    "version": "0.7.5+commit.eb77ed08.Emscripten.clang"
  },
  "schemaVersion": "3.4.6",
  "updatedAt": "2022-04-08T06:44:53.374Z",
  "networkType": "ethereum",
  "devdoc": {
    "kind": "dev",
    "methods": {},
    "version": 1
  },
  "userdoc": {
    "kind": "user",
    "methods": {},
    "version": 1
  }
}